S0140000444973706C61795F536164612E7372656382
S31500000000C02DFF1FF1AB00009DAA0000EDAB000064
S31500000010EDAB0000EDAB0000EDAB0000EDAB00007A
S31500000020000000000000000000000000794500000C
S31500000030EDAB00000000000091450000ED4500001A
S31500000040AD990000219900003D9A0000859A0000B4
S315000000506D5D0000A15D0000D55D0000F95D00004A
S315000000609D9F0000858F00001D900000F590000008
S31500000070DD910000AD990000219900003D9A000035
S31500000080859A00000000000000000000000000004B
S31500000090000000000000000000000000000000005A
S315000000A0000000000000000000000000000000004A
S315000000B0000000000000000000000000000000003A
S315000000C0000000000000000000000000000000002A
S31500000400FFFFFFFFFFFDFFFFFCFFFFFFFFFFFFFFFB
S31500000410FCFFFFFFFFFFFFFFFCFFFF00FFFFFF00EA
S31500000420FCFF0F20FFFF0F20FCFF7F40FFFF7F40F8
S31500000430FCFF0D40FFFF0D40FFFFFFFFFFFFFFFF2B
S31500000440FFFFFFFFFFFFFFFFFFFFFFFFFFFFFFFFB6
S31500000450FFFFFFFFFFFFFFFFFFFFFFFFFFFFFFFFA6
S31500000460FFFFFFFFFFFFFFFFFFFFFFFFFFFFFFFF96
S31500000470FFFFFFFFFFFFFFFFFFFFFFFFFFFFFFFF86
S31500000480FFFFFFFFFFFFFFFFFFFFFFFFFFFFFFFF76
S31500000490FFFFFFFFFFFFFFFFFFFFFFFFFFFFFFFF66
S315000004A0FFFFFFFFFFFFFFFFFFFFFFFFFFFFFFFF56
S315000004B0FFFFFFFFFFFFFFFFFFFFFFFFFFFFFFFF46
S315000004C0FFFFFFFFFFFFFFFFFFFFFFFFFFFFFFFF36
S315000004D0FFFFFFFFFFFFFFFFFFFFFFFFFFFFFFFF26
S315000004E0FFFFFFFFFFFFFFFFFFFFFFFFFFFFFFFF16
S315000004F0FFFFFFFFFFFFFFFFFFFFFFFFFFFFFFFF06
S315000005000348044B834202D0034B03B1184770479C
S315000005104C04FE1F4C04FE1F000000000548064B5D
S315000005201B1AD90F01EBA301491002D0034B03B1EB
S31500000530184770474C04FE1F4C04FE1F00000000C5
S3150000054010B5064C237843B9FFF7DAFF044B13B115
S315000005500448AFF300800123237010BD6804FE1F1A
S3150000056000000000EC10010008B5054B1BB1054961
S315000005700548AFF30080BDE80840FFF7CFBF00BFD6
S31500000580000000006C04FE1FEC100100704700BF65
S31500000590704700BF08B5242204494FF4605003F0A9
S315000005A075F9034B00221A7008BD00BF68F70000FA
S315000005B00400FE1F10B51C4C2378052B0CD8DFE871
S315000005C003F00F18212A030C184914224FF468501F
S315000005D003F05CF90523237010BD0623237010BDBC
S315000005E0134924224FF4645003F050F90123237079
S315000005F010BD0F4924224FF4685003F047F9022337
S31500000600237010BD0B4911224FF4605003F03EF9E0
S315000006100323237010BD08490D224FF4645003F0E4
S3150000062035F90423237010BD0400FE1FB4F7000043
S3150000063068F7000090F70000A4F7000008B515223F
S3150000064004494FF4C85003F021F9034B00221A70F5
S3150000065008BD00BFCCF70000A900FE1F38B5304C1E
S315000006602378062B11D8DFE803F0141D263749043A
S3150000067011002C4A2C4B127803EB02134FF44C500A
S31500000680197B03F0DBF80623237038BD072323709C
S3150000069038BD264912224FF4C05003F0F7F8012363
S315000006A0237038BD21490A224FF4CC5003F0EEF8EE
S315000006B00223237038BD1B4B1B4A1B781B01D558E0
S315000006C028460EF090F9294682B24FF4C85003F03E
S315000006D0DDF80323237038BD124A134B127803EB5F
S315000006E002135D6828460EF07EF9294682B24FF461
S315000006F0C05003F0CBF80423237038BD094A0A4BD7
S31500000700127803EB02139D6828460EF06CF9294611
S3150000071082B24FF4CC5003F0B9F80523237038BDEC
S31500000720A900FE1FA800FE1F0800FE1FCCF7000050
S3150000073010B582B000230D488DF807300DF1070281
S315000007404FF4007109F046FC9DF80740012C01D0DA
S3150000075002B010BD01F0C4F8054B18781A2808BF7E
S31500000760204603F0D7F802B010BD00BF701AFE1F76
S31500000770AA00FE1F08B54A8841F690139A4200D097
S3150000078008BD01F0ADF8044B18781A28BDE80840FA
S3150000079008BF012003F0BEB8AA00FE1F014B0A22C3
S315000007A01A707047A800FE1F10B50C4602F0C4FF71
S315000007B0044A054B014611701C70BDE810401A2012
S315000007C003F0A8B8AA00FE1FA800FE1F704700BFCE
S315000007D008B5054B4FF4825093F8301003F02EF80D
S315000007E0024B00221A7008BDE013FE1FAB00FE1F6D
S315000007F010B5084C237803B110BD074B93F83100B0
S3150000080002F060FF014641F2501003F017F8022390
S31500000810237010BDAB00FE1FE013FE1F08B54B880A
S3150000082041F25012934210D043F25002934207D045
S31500000830B3F5825F03D1084BCA8883F8302008BD20
S31500000840BDE80840052003F065B8C88802F04AFFF5
S31500000850014B83F8310008BDE013FE1F704700BF4F
S3150000086008B500F05DFCBDE80840014603224FF4E0
S31500000870A85003F00BB800BF38B5488841F20553BD
S3150000088098421ED043F25003984200D038BDCB8820
S31500000890502BFBD11D4C1E4A0023156884F83930B5
S315000008A084F83A3002F0D0FE2D1AA4F8395000F040
S315000008B037FCBDE83840014603224FF4A85002F049
S315000008C0E5BF144B1A78D2B9CB88114A180A3038CA
S315000008D01060106800EB8000400010601068DBB20A
S315000008E0303B0344136010680B8900EB8000400026
S315000008F0106011681B0A303B0B44136038BD0022A0
S315000009001A70BDE8384002F0ADBF00BFE013FE1F0D
S315000009108404FE1FAC00FE1F08B50E22044943F2F4
S31500000920500002F0B3FF034B00221A7008BD00BF4F
S3150000093054F90000AD00FE1F10B5144C2378062BA9
S3150000094007D8DFE803F00D1606190406070005238D
S31500000950237010BD0E4B0721002221701A6010BDB6
S315000009600C49102243F2600002F090FF012323702D
S3150000097010BD0223237010BD0649102243F2600009
S3150000098002F084FF0423237010BD00BFAD00FE1FDC
S315000009908804FE1F7CF70000064B1B78072B00D04F
S315000009A07047054A13680133052B1360F8DD0520EF
S315000009B002F0B0BFAD00FE1F8804FE1F38B54B889D
S315000009C0B3F58B5F09D043F25002934200D038BD95
S315000009D0BDE83840052002F09DBFB1F808C0CB88BD
S315000009E01D4C4FEA1C213039C8B221781A0A303A18
S315000009F0303B0229D2B2DBB20FD0184D2978914292
S31500000A0002D16A789A4219D01549102243F2600041
S31500000A1002F03CFF0623237038BD104D11492A70A1
S31500000A20ACF1300CA870102243F250006B7085F8C0
S31500000A3003C002F02BFF0323237038BDAB7883423B
S31500000A40E2D11022084943F2600002F01FFF074B73
S31500000A502A68C3F80520DDE7AD00FE1F8C04FE1FE3
S31500000A608CF9000064F9000078F90000E013FE1F1D
S31500000A70704700BF10B52C4801F02EFA0128044635
S31500000A8007D0294801F028FAA0F10204B4FA84F448
S31500000A906409264801F020FA01282BD1244801F0E8
S31500000AA01BFA012844F002042ED1224801F014FA60
S31500000AB0012844F0040431D144F0080400F02CFF6E
S31500000AC01D4B1E491B785B4203F40073404200F441
S31500000AD080701C4341F2100204434A801848CC80BF
S31500000AE04FF4C1720A800023BDE8104000681A4620
S31500000AF00AF0ACBB0D4801F0EFF90228CED00C4845
S31500000B0001F0EAF90128D0D0094801F0E5F90228F8
S31500000B10CBD0084801F0E0F90128CDD0054801F016
S31500000B20DBF90228CAD1C7E7B405FE1F9005FE1FF0
S31500000B306C05FE1F4805FE1F1B14FE1FE006FE1F68
S31500000B406C1AFE1F08B5FFF795FF0349034A0023F9
S31500000B500B70136008BD00BF9404FE1F9004FE1FB7
S31500000B6010B5084C2378042B00D010BD064A136834
S31500000B700133022B1360F8DDFFF77CFF002323709F
S31500000B8010BD00BF9404FE1F9004FE1F30B53D4CFF
S31500000B90237885B0032B18D8DFE803F04720021925
S31500000BA039493A4AC1F8062039484FF458520023C9
S31500000BB04A8140F282320A8000681A464FF4945500
S31500000BC04D800AF043FB0323237005B030BD314A44
S31500000BD0002104231160237005B030BD2E4A07CAD8
S31500000BE001AB83E80700284A114640F2826541F2CC
S31500000BF0302021F8045B508002F1100C93F90000BC
S31500000C0093F9012042EA002221F8022F8C4503F1D4
S31500000C100203F3D11E4A1C49106800231A460AF043
S31500000C2015FB0223237005B030BD174D4FF48152DA
S31500000C3040F282236A802B8002F006FD174AA2FB4F
S31500000C400013DB08A2FB0312D20803EB8301A0EB1F
S31500000C50410002EB8201A3EB41033032303343EA19
S31500000C6002230B49EB803030002340F438502881B2
S31500000C701A46086829460AF0E9FA0123237005B0E6
S31500000C8030BD00BF9404FE1FE006FE1F3231353A28
S31500000C906C1AFE1F9004FE1FA0F90000CDCCCCCC30
S31500000CA0704700BF10B5074C0748214608F088FF7B
S31500000CB0A18941F2102002F0C1FD044B00221A70F6
S31500000CC010BD00BF9804FE1FD81BFE1FAE00FE1FFE
S31500000CD010B5214C2378052B0CD8DFE803F00F184C
S31500000CE02B34030C1D4B41F22220198802F0A6FD7D
S31500000CF00523237010BD0623237010BD174B41F248
S31500000D001120198A02F09AFD0123237010BD134B9E
S31500000D10134A596982FB0132CB17C3EB6213642075
S31500000D2000FB131189B241F2122002F087FD022363
S31500000D30237010BD094B4FF49150198902F07EFDC6
S31500000D400323237010BD054B41F22120998802F040
S31500000D5075FD0423237010BDAE00FE1F9804FE1F10
S31500000D601F85EB5108B54B8841F2222293422CD8BD
S31500000D7041F20F22934213D9A3F59053103B122B45
S31500000D800ED8DFE803F012161A0D0D0D0D0D0D0D20
S31500000D900D0D0D0D0D0D1E0A0E00164BCA885A605C
S31500000DA008BD144BCA881A6008BD124BCA88DA609F
S31500000DB008BD104BCA881A6108BD0E4BCA885A6115
S31500000DC008BD0C4BCA889A6008BD43F25002934294
S31500000DD0E6D1CB88062B04D0BDE80840052002F0FA
S31500000DE099BD054808F0E6FE0249034809F03CF8BB
S31500000DF0F2E700BF9804FE1FD81BFE1F704700BF16
S31500000E0008B54A8843F250039A4200D008BDCA8802
S31500000E1042F202039A42F9D100F062FF00F0BAFFF3
S31500000E20BFF34F8F0549064BCA6802F4E0621343CD
S31500000E30CB60BFF34F8F00BFFDE700BF00ED00E0C2
S31500000E400400FA05704700BF0449054A00234FF421
S31500000E5054500B70137002F005BD00BFBC04FE1F9A
S31500000E60AF00FE1FF0B587B001F0B0FBE0B1C2885D
S31500000E70037841788478C578067940790091013AFB
S31500000E80D2B2092A96BF0F4F0F4A57F8222003966F
S31500000E90CDE90402CDE901450C4A0D4825210DF0A6
S31500000EA0D3FB0B4807B0F0BD0A4D094C0FCD0FC45C
S31500000EB00FCD0FC495E8030044F8040B04482170D5
S31500000EC007B0F0BDD80401002CFB0000ACF900000F
S31500000ED0C004FE1F68F70000F0B5394C2378013BCB
S31500000EE087B0052B2DD8DFE803F0323C0346522E9F
S31500000EF0344B187801F036FB002854D0C28841786C
S31500000F0003788578C67807794079013AD2B2092AFA
S31500000F1096BFDFF8C4C02C4A5CF82220CDE9001544
S31500000F20CDE90402CDE90267284A294825210DF0BA
S31500000F308BFB274924224FF4605002F0A7FC0423C0
S31500000F40237007B0F0BD0723237007B0F0BD214919
S31500000F5024224FF4645002F099FC0223237007B058
S31500000F60F0BD1C4924224FF4645002F08FFC032389
S31500000F70237007B0F0BDFFF775FF242201464FF43A
S31500000F80645002F083FC0523237007B0F0BDFFF721
S31500000F9069FF242201464FF4685002F077FC0623CD
S31500000FA0237007B0F0BD0B4E094D0FCE0FC50FCE07
S31500000FB00FC596E8030045F8040B2970B9E700BF92
S31500000FC0AF00FE1FBC04FE1F2CFB0000ACF90000A6
S31500000FD0C004FE1F68F70000D804010008B54B885E
S31500000FE0B3F5545F00D008BD074BB1F806C00749FA
S31500000FF083F800C024224FF4605002F047FC044BF3
S3150000100001221A7008BD00BFBC04FE1F68F700006D
S31500001010AF00FE1F704700BF704700BF704700BF9C
S3150000102038B54B88B3F5A85F0C460FD041F2105285
S31500001030934206D0822B03D1CB880B4A1B0A5386D8
S3150000104038BDCB88084A013BD37038BD02F0FCFAA4
S315000010500546E08802F046FB034B00EB8000C5EB3B
S315000010604005A3F8395038BDE013FE1F10B50B4CF0
S31500001070237863B1012B00D010BD094BD97841F21A
S315000010801050013102F0DAFB0023237010BD044B2F
S31500001090588E02F04FFB0323237010BDB000FE1FD5
S315000010A0E013FE1F08B51A4BB3F9391001F16302BC
S315000010B092B2C62A28D80BB2002BBCBF49420BB24B
S315000010C0144A9BB2A2FB03124FEAD20202EB820140
S315000010D0A3EB410302F1300203F13003B4BF2D202C
S315000010E0202052B25BB20C494FF0000C08704A70D7
S315000010F04FF4A85003228B7081F803C002F0C6FBA0
S31500001100064B01221A7008BD2D2002460346EAE767
S31500001110E013FE1FCDCCCCCCE804FE1FB000FE1FB2
S31500001120164BB3F9391001F1630292B2C62A0BB21B
S315000011301FD8002BBCBF49420BB2114A9BB2A2FB7F
S3150000114003024FEAD20202EB8200A3EB400302F154
S31500001150300203F13003B4BF2D21202152B25BB21D
S3150000116008484FF0000C01704270837080F803C08D
S3150000117070472D210A460B46F2E700BFE013FE1F1B
S31500001180CDCCCCCCE804FE1F704700BF01480DF063
S3150000119053BA00BF94FA0000CA880F48098990F82C
S315000011A005C0130A303BDBB29C450FD18379303A38
S315000011B0D2B293420AD10B0AC279303BDBB29A42D1
S315000011C004D1037A3039C9B28B4202D0182002F01A
S315000011D0A1BB052002F09EBBE013FE1F704700BFB7
S315000011E010B5224B224993F834304FF6FF72092B83
S315000011F00A8117D803F13002D2B2120242F0FF027E
S315000012001C48CA80002340F2822241F210140A8050
S315000012104C801A46006816490AF018F8164B002248
S315000012201A7010BD154CA4FB0320C20802EB820203
S31500001230A3EB42023032632B4FEAD000D2B203D87E
S31500001240303042EA0022DBE7A4FB0034E40804EB7A
S315000012508403A0EB43001202303042F0FF02C0B21A
S3150000126030340A8140EA0422CAE700BFE013FE1FB9
S31500001270E006FE1F6C1AFE1FB100FE1FCDCCCCCCC3
S315000012804B8841F23012934242D00ED841F21012EE
S31500001290934220D0B3F5895F18D0B3F5885F0FD19C
S315000012A01E4BCA8883F838207047B3F58A5F08D08A
S315000012B043F25002934202D1052002F02BBB704745
S315000012C07047164BCA8883F837207047134BCA8875
S315000012D083F835207047CA88130AD0B2303BFF28FE
S315000012E0DBB206D003EB8303303A02EB430202F093
S315000012F0FF030A89120AFF2A06D003EB8303303A5A
S3150000130002EB430202F0FF03044A82F834307047CE
S31500001310024BCA8883F83620704700BFE013FE1FD1
S3150000132010B5184C2378042B0DD8DFE803F0210301
S31500001330170C0D00144B41F2301093F8361002F0E2
S315000013407DFA0223237010BD0F4B4FF4895093F89A
S31500001350351002F073FA0123237010BD0A4B4FF4C7
S315000013608A5093F8371002F069FA0523237010BDEE
S31500001370054B4FF4885093F8381002F05FFA0423B7
S31500001380237010BDB100FE1FE013FE1F704700BFA3
S3150000139008B54A8843F250039A420CD0BFF34F8FE8
S315000013A00849094BCA6802F4E0621343CB60BFF3F5
S315000013B04F8F00BFFDE700F0EDFC012002F0AAFA16
S315000013C0ECE700BF00ED00E00400FA05014B002247
S315000013D01A607047EC04FE1F704700BF02F016BA91
S315000013E0054A13680133312B01DC13607047002373
S315000013F00120136002F08EBAEC04FE1F704700BF96
S315000014004B88C98841F2223293422DD841F20F32DD
S31500001410934210D9A3F59853103B122B0BD8DFE853
S3150000142003F00F13170A0A0A0A0A0A0A0A0A0A0A1C
S315000014300A0A1B1F0B0070470F4B83F82D107047CD
S315000014400D4B83F82A1070470B4B83F82E1070470C
S31500001450094B83F82F107047074B83F82B10704702
S31500001460054B83F82C10704743F25002934202D189
S31500001470052002F04FBA7047E013FE1F08B50B4A6D
S315000014800B4992F82AC00B48A1F806C041F2103267
S3150000149000234A804FF4C1720A8000681A4609F098
S315000014A0D5FE054B00221A7008BD00BFE013FE1FD3
S315000014B0E006FE1F6C1AFE1FB200FE1F10B53D4C63
S315000014C02378052B19D8DFE803F01C32485E031990
S315000014D039483A493A4A90F82D00C880002341F22B
S315000014E0223C1068A1F802C01A464FF4C17CA1F84C
S315000014F000C009F0ABFE0523237010BD0623237040
S3150000150010BD2D482D492E4A90F82E00C880002384
S3150000151041F2113C1068A1F802C01A464FF4C17C92
S31500001520A1F800C009F092FE0123237010BD2248E5
S315000015302249234A90F82F00C880002341F2123C2A
S315000015401068A1F802C01A464FF4C17CA1F800C089
S3150000155009F07CFE0223237010BD17481749184A6C
S3150000156090F82B00C88000234FF4995C1068A1F80E
S3150000157002C01A464FF4C17CA1F800C009F066FE0D
S315000015800323237010BD0C480C490D4A90F82C001B
S31500001590C880002341F2213C1068A1F802C01A4617
S315000015A04FF4C17CA1F800C009F050FE042323705B
S315000015B010BD00BFB200FE1FE013FE1FE006FE1FB7
S315000015C06C1AFE1F704700BF10B53A4C2378013BDA
S315000015D0072B11D8DFE803F014233241505F0411C2
S315000015E0354A364B128803EBC20341F24900997A19
S315000015F002F024F90823237010BD0923237010BDBF
S315000016002D4A2E4B128803EBC20341F2500093F988
S315000016100D1089B202F012F90223237010BD264A7A
S31500001620264B128803EBC20341F2510093F90C10CA
S3150000163089B202F003F90323237010BD1E4A1F4B23
S31500001640128803EBC20341F2520093F90C1089B2DF
S3150000165002F0F4F80423237010BD174A174B1288C2
S3150000166003EBC2034FF4835093F9101089B202F0D2
S31500001670E5F80523237010BD0F4A104B128803EBC3
S31500001680C20341F2610093F90F1089B202F0D6F855
S315000016900623237010BD084A084B128803EBC203C9
S315000016A041F2620093F90E1089B202F0C7F80723DF
S315000016B0237010BDB300FE1FF004FE1FE013FE1FD3
S315000016C00849094A0948002341F2300CA1F802C032
S315000016D0137040F2831C0068A1F800C01A4609F096
S315000016E0B5BD00BFE006FE1FB300FE1F6C1AFE1F4D
S315000016F04B88A3F58153103B322B22D8DFE803F049
S315000017002A212121212121212121212121212121BA
S315000017103D21212121212121211A2121212121219E
S31500001720454D55212121212121212121212121211F
S315000017305D652200294A2A4B1088CA8803EBC0033C
S315000017409A727047254A264B1088CA8803EBC00355
S315000017509A73704710B4224BCA88204C21482280C5
S3150000176003EBC2034FF0010C80F800C0597A5DF814
S31500001770044B4FF4825002F061B8184A184B108897
S31500001780CA8803EBC0035A727047144A144B108878
S31500001790CA8803EBC0035A737047104A104B10886F
S315000017A0CA8803EBC0031A7370470C4A0C4B1088A7
S315000017B0CA8803EBC003DA727047084A084B1088E0
S315000017C0CA8803EBC0031A747047044A044B108896
S315000017D0CA8803EBC003DA73704700BFF004FE1F2C
S315000017E0E013FE1FB300FE1F704700BF024A1368D6
S315000017F001331360704700BFF404FE1F704700BF3B
S31500001800054B064910B400241C605DF8044B1222F7
S315000018104FF4B85002F03AB8F404FE1FB4FA0000D0
S31500001820013809282ED8DFE800F0090D1115191D19
S315000018302125290514480921FEF7B6BF12480021C3
S31500001840FEF7B2BF10480321FEF7AEBF0E480421D3
S31500001850FEF7AABF0C480521FEF7A6BF0A480621D7
S31500001860FEF7A2BF08480721FEF79EBF06480221E1
S31500001870FEF79ABF04480821FEF796BF02480121E9
S31500001880FEF792BF704700BF5001FE1F104B1B783A
S315000018900A2B1CD8DFE803F0150606060606060620
S315000018A0150606000B4B0C4893F83020012A03D18D
S315000018B00A4B1B78032B00D1002240F2052108F0C9
S315000018C0AFBB0548002240F2052108F0A9BB7047CE
S315000018D00005FE1FE013FE1F701AFE1F0105FE1F06
S315000018E008B50AF0F3FB0349034B086003221A709C
S315000018F008BD00BFFC04FE1F0105FE1F08B50AF067
S31500001900E5FB0349034B086000221A7008BD00BFBF
S31500001910F804FE1F0105FE1F034B18780238012844
S315000019208CBF0020012070470105FE1F70B582B0F4
S3150000193000238DF8073001F041FE40F206210446EF
S315000019400DF10702504808F045FB9DF80730C3B972
S3150000195001264E4D2B78032B0ED8DFE803F00276D6
S31500001960613E0AF0B3FB4A4A126847F22F53801AC7
S31500001970984201DD01232B7002B0BDE87040FFF7ED
S3150000198085BF01F077FE012863D0042C5FD0414863
S3150000199000F0A2FA03285ED03F4800F09DFA032823
S315000019A00646D6D03D4800F097FA032855D03C4865
S315000019B000F092FA032865D0344D2B78032BDBD840
S315000019C001A252F823F000BF63190000451A000077
S315000019D01D1A00005F1A00000826324B1A78B24220
S315000019E008D030461E7000F013FE3046FFF718FF91
S315000019F002232B700AF06AFB2B4A2C4B126893F8D1
S31500001A003130801A4EF6602202FB03F39842B3D9B6
S31500001A103046FFF705FF02232B70ADE75CBB0826B7
S31500001A20204B1A78B242A7D030461E7000F0F0FD67
S31500001A303046FFF7F5FE02232B7002B0BDE870407A
S31500001A40FFF724BF002C97D10826164BECE7072694
S31500001A507FE709267DE702267BE7042679E7002C47
S31500001A60BAD01348FEF79AFE012001F053FF012376
S31500001A7000262B70BEE70E48FEF790FE012001F00F
S31500001A8049FF77E7052664E7701AFE1F0105FE1F6A
S31500001A90F804FE1FB405FE1F9005FE1F6C05FE1F11
S31500001AA04805FE1F0005FE1FFC04FE1FE013FE1F77
S31500001AB05001FE1F0020704740F20C40704700BFE7
S31500001AC000207047012070470020704700207047B3
S31500001AD010B50C4601F0B8FDB4F5057F13D2B4F588
S31500001AE0007F40F28F80A4F20224112C00F2948031
S31500001AF0DFE804F0524F4B481C18447C7874706C35
S31500001B006865615D5955B4F5427F13D2B4F5407FDF
S31500001B1078D9A4F20234052C07D8DFE804F00307CD
S31500001B2023272B1F3E4B93F82A0010BD3C4B93F8FE
S31500001B30290010BD40F203439C4265D040F20443A5
S31500001B409C4257D040F202439C425BD1344B93F8FF
S31500001B502B3083428CBF0020012010BD314800F09D
S31500001B60BBF910BD304800F0B7F910BD2F4800F0A2
S31500001B70B3F910BD2E4800F0AFF910BD284B93F80D
S31500001B802B0010BD264BD87810BD254B93F82100AD
S31500001B9010BD234B587E10BD214B587C10BD204BE9
S31500001BA093F8370010BD1E4B93F8360010BD1C4B42
S31500001BB093F8350010BD1A4B93F8340010BD184B3E
S31500001BC0588E10BD164B93F8310010BD144B93F888
S31500001BD0300010BD124B93F82F0010BD104B93F838
S31500001BE02E0010BD0E4B93F82D0010BD0C4B93F834
S31500001BF02C0010BD0A4B93F82D3083428CBF002079
S31500001C00012010BD002010BD054B93F82C308342F7
S31500001C108CBF0020012010BD014B587A10BD00BFBB
S31500001C20E013FE1F4805FE1FB405FE1F9005FE1FAC
S31500001C306C05FE1F264B93F83800012801D00120C1
S31500001C4070476FF40070014412290DD8DFE801F0E7
S31500001C500E10121417191C1F2225282B2E3134366C
S31500001C60393C0A0083F83720002070475A72FBE798
S31500001C705A74F9E75A76F7E783F82120F4E7DA7021
S31500001C80F2E783F82920EFE783F82A20ECE783F8C8
S31500001C902B20E9E783F82C20E6E783F82D20E3E7FD
S31500001CA083F82E20E0E783F82F20DDE783F8302045
S31500001CB0DAE783F83120D7E75A86D5E783F8342068
S31500001CC0D2E783F83520CFE783F83620CCE700BF8C
S31500001CD0E013FE1F014B0360704700BF5C07010065
S31500001CE0264B012010B440F20121D87083F8310050
S31500001CF04FF06C50A3F80910C3F80B00A3F81110AD
S31500001D0040F63B70A3F8191001F1C851A3F817006B
S31500001D1001F5B0111A48C3F81300642441F23B7070
S31500001D2001F61D61002283F83240A3F81F00A3F8D4
S31500001D302700C3F829101348C3F823004FF00131D8
S31500001D4004F1013404F5277483F83320C3F8051031
S31500001D5083F8392083F83A200B480C49C3F82D0044
S31500001D6040F23B7C4FF40072A3F80FC05C63C3F8EB
S31500001D701B10A3F821205DF8044B7047E013FE1FEB
S31500001D800000083B0000123B1C1B03010000103B37
S31500001D90704700BF08496FF05A0000234FF0010C4E
S31500001DA0087048703B22054881F802C081F8393036
S31500001DB081F83A3000F030BDE013FE1F9001FE1F9F
S31500001DC010B50D4C0D481322214600F0BFFC2288A9
S31500001DD04AF2A5539A420DD0094B03CB4FF48032F9
S31500001DE01B78C4F80B20C4F80F20C4F80200C4F80E
S31500001DF00610A37210BD00BF0805FE1F9001FE1F4E
S31500001E00C8FA000010B5174C17483B22214600F0CF
S31500001E10A9FC22884AF2A5539A4202D1A378012B43
S31500001E2006D0FFF75DFF002384F8393084F83A3096
S31500001E300E4C0D481322214600F088FC22884AF2F7
S31500001E40A5539A420DD00A4B03CB4FF480321B7830
S31500001E50C4F80B20C4F80F20C4F80200C4F806101A
S31500001E60A37210BDE013FE1F9001FE1F0805FE1FA2
S31500001E70C8FA000010B541610021C0E903110170E4
S31500001E8041600172012180F820100021BDF808E0B0
S31500001E900C4662F30F0163F31F41BDF80C308161FC
S31500001EA06EF30F0463F31F44C46110BD38B5094DCA
S31500001EB0018B04460122284608F0B2F8E18B012284
S31500001EC0284608F0ADF8618B28460122BDE8384067
S31500001ED008F0A6B8701AFE1F0378072B9ABF024AAD
S31500001EE0D05C0420704700BF8C0701000F4B42698D
S31500001EF003EBC2035B7A93B110B50378022B82B071
S31500001F00044606D0042B04D00BB9012908D002B030
S31500001F1010BD0029FBD10723237002B010BD704706
S31500001F2001910AF0D3F801992170F0E7E013FE1F42
S31500001F30124B1A78012A06D0007AA0F10100B0FAF5
S31500001F4080F0400970474269032AF5D8DFE802F0BD
S31500001F50110C07025879003818BF0120704718790C
S31500001F60003818BF01207047D878003818BF012004
S31500001F7070479878003818BF012070478801FE1F07
S31500001F8010B5044682B00023018B24488DF8073033
S31500001F900DF1070208F01EF8237A042B0AD8DFE8B1
S31500001FA003F012271D030B009DF80730012B2DD0DF
S31500001FB00223237202B010BD9DF80730F3B101234E
S31500001FC0237202B010BD9DF80730012B0AD00AF02B
S31500001FD07DF80423E060237202B010BD9DF807303F
S31500001FE0012BE7D10AF072F8032320612372E1E79F
S31500001FF09DF80730002BEAD002B010BD0AF066F853
S31500002000E3688342D4D104232372D3E70AF05EF84F
S3150000201023698342D3D103232372CBE7701AFE1FB1
S3150000202038B52A4D0446FFF7ABFF2B78013B032B4F
S315000020300FD8DFE803F00221170F618B2448002236
S3150000204007F0EEFF2248E18B002207F0E9FF0223AA
S315000020502B7038BD2046FFF76BFF034618B30523E8
S31500002060237038BD63680133012B6360F1DD042200
S3150000207000232A70636038BD6368164A61690133BC
S3150000208002EBC1026360927AC2EB0212B3EB820FDB
S31500002090DFDB0022218B0E4807F0C2FF032200235C
S315000020A02A70636038BD2070218B09482B7001228D
S315000020B007F0B6FFE18B0648012207F0B1FF618BFE
S315000020C00348BDE83840012207F0AABF1B05FE1FE2
S315000020D0701AFE1FE013FE1F38B50446FFF750FFC7
S315000020E02378013B062B16D8DFE803F016233A4483
S315000020F04E590400218B3848012207F091FFE18BED
S315000021003548012207F08CFF3348618B012207F026
S3150000211087FF0023237038BD618B2F48002207F00C
S315000021207FFF2D48E18B002207F07AFF0223237000
S3150000213038BD6368294A6169013302EBC1026360F5
S31500002140927AC2EB0212B3EB820FE4DB0022218B00
S31500002150214807F065FF032200232270636038BD23
S3150000216063680133012B6360D5DD042200232270EE
S31500002170636038BD2046FFF7DBFE0028CBD0052282
S3150000218000232270636038BD636801331E2B6360D1
S31500002190134B0DDD1A785AB10623237038BD104B48
S315000021A01B78002BB6D02046BDE83840FFF738BF75
S315000021B00125218B08481D702A4607F031FFE18B67
S315000021C005482A4607F02CFF618B03482A46BDE8DE
S315000021D0384007F025BF00BF701AFE1FE013FE1F30
S315000021E01B05FE1FF8B5234D04462946224807F075
S315000021F0E7FC224B95F9086095F90070E0000B307A
S31500002200C21813F900C092F9043092F905E0C3EB45
S31500002210031495F904304FF46165C3EB031005FB15
S315000022200EF192F9033001EB8401194405FB06F324
S3150000223003EB800392F9020092F9012070453B44BA
S3150000224006DDB0420CDC0E4B01221A700020F8BDF0
S31500002250C2EB0212920005FB002262449A42F2DCB3
S315000022609942074BB4BF012200221A70ACBF01206D
S315000022700020F8BD2005FE1FD81BFE1FE013FE1F21
S315000022801C05FE1F2DE9F041124E134D134F00247D
S315000022904FF0010817F83430012B204604F10104F1
S315000022A00AD02B6883F82080042C06F1010605F17C
S315000022B00405EFD1BDE8F081FFF794FF0023002865
S315000022C0EFD02A68337082F82030054B04F0030201
S315000022D01A60E9E7B800FE1F94070100E913FE1F24
S315000022E04405FE1F2DE9F04F244FDFF894804FF090
S315000022F0013383B03B60FFF7C5FF00243D4615F868
S31500002300013B2BB10134042CF9D103B0BDE8F08FA9
S3150000231058F82400FFF7E0FD0328F3D1DFF864A0A6
S315000023202646012306F0030905F8013C0AEBC9031A
S3150000233004F1040B5B7A012B09D001365E45E1D02E
S3150000234006F003090AEBC9035B7A012BF5D158F8AD
S31500002350293093F820100129EFD1184601910093F6
S31500002360FFF7BAFD0328DDE90031E6D01846FFF78E
S31500002370BDFD002307F80930C4E700BFB800FE1F03
S3150000238094070100E013FE1F08B50848FFF78EFD0D
S315000023900748FFF78BFD0748FFF788FD0648FFF75C
S315000023A085FDBDE8084001F0B5B800BFB405FE1FC5
S315000023B09005FE1F6C05FE1F4805FE1F70B5464CB6
S315000023C0E378012B13D0FFF78DFF444C444D261DB7
S315000023D014F8013B2868012103B10021FFF786FDAF
S315000023E055F8040BFFF778FEB442F1D170BD01F049
S315000023F0E5F80546042808D8DFE800F00354391C40
S315000024000A00364E4FF001333360364B1D70DCE761
S31500002410324A314B4FF00131116003F120000024A4
S31500002420597A0833012908BF1470834202F1010268
S31500002430F6D1EAE7294E4FF001333360FFF722FF6A
S31500002440294B27481B684FF0000E03F1040C594234
S3150000245001F0030103F0030258BF4A4204EBC20134
S315000024600133497A012920D06345F0D1CDE71B4ECF
S315000024704FF001333360FFF705FF1B4B18481B680D
S3150000248003F1040C594201F0030103F0030258BFA3
S315000024904A4204EBC2010133497A012913D063454C
S315000024A0F0D1B2E7FFF71EFFAFE750F8221091F820
S315000024B020100129D8D10EF1010E0021BEF1020F24
S315000024C0B154D1D1A1E750F8221091F8201001297A
S315000024D0E5D10023B35498E7E013FE1FB800FE1FB2
S315000024E094070100B400FE1F4405FE1F00B500213D
S315000024F083B04FF48163CDE900134FF483724FF438
S3150000250086731448FFF7B6FC012140F20943CDE972
S31500002510001340F20A2240F209130F48FFF7AAFC03
S3150000252002214FF4A063CDE900130E2240F20B13F3
S315000025300A48FFF79FFC032140F20153CDE900133F
S315000025400F224FF485730648FFF794FC03B05DF83D
S3150000255004FB00BFB405FE1F9005FE1F6C05FE1FA1
S315000025604805FE1F30B4164C164D94F8A3C094F8D7
S31500002570A21000EB4000BCF1140FA0F10302D2B28E
S3150000258014BF634600238C4513440F482ABFCCF181
S31500002590140CA1EB0C016144142B0360C8BF143B5F
S315000025A0A1EB0201C8BF0360DA0004EBC303296094
S315000025B0188918B102320139A018296030BC704759
S315000025C00406FE1FFC05FE1F0006FE1F0D490A68D5
S315000025D0002A14DD0C4803680133013A132B0A6004
S315000025E00ADC1A460949026001EBC302DB001289C4
S315000025F02AB102335818704700221346F2E700202A
S31500002600704700BFFC05FE1F0006FE1F0406FE1FE6
S31500002610F8B52B4C2B4D064621462B4807F0D0FA31
S31500002620E1682A4895F8A2306768002261F307023C
S3150000263094F9141080FB010C206960F30F22C8176F
S31500002640C0EB6C104FF0640C0CFB101161F31742D9
S31500002650A168A81C61F31F62216840F8332005EBCE
S31500002660C302D17195F8A3109771142916811BD056
S315000026708B4210D00133DBB2132B00D900234BF66B
S31500002680D02485F8A2302C80BDE8F8400D491048CA
S31500002690A42200F085B80133DBB2132B0CD900233A
S315000026A085F8A3300023EAE70133DBB20022132BBF
S315000026B085F8A320E3D9E1E785F8A330DFE700BF7B
S315000026C0D805FE1F0406FE1FD81BFE1F1F85EB51F3
S315000026D09001FE1F10B40B4C4FF4A053A4F8A23087
S315000026E004F1A0012346002223F8082F8B42FBD1D8
S315000026F04BF6D0232380034903485DF8044BA422FC
S3150000270000F04EB80406FE1F9001FE1F10B50C4CDB
S315000027100C48A422214600F031F822884BF6D0233B
S315000027209A420BD04FF4A052A4F8A220234604F1FB
S31500002730A001002223F8082F8B42FBD110BD00BF59
S315000027400406FE1F9001FE1F704700BF31B108B599
S31500002750084603490CF039F9012008BD01207047ED
S315000027600000104031B108B5084603490CF02DF9B8
S31500002770012008BD012070470002104031B108B5A4
S31500002780084603490CF021F9012008BD01207047D5
S315000027908002104010B504460AF016F9204610BD16
S315000027A038B51446A3064FEA92120D4618BF0132F9
S315000027B00849094807F05CFF08B1002038BD054A02
S315000027C005482346294608F009F8B0FA80F0400982
S315000027D038BD00BF800210409C1AFE1F38B5144653
S315000027E0A3064FEA92120D4618BF0132084909485E
S315000027F007F03EFF08B1002038BD054A05482346CC
S31500002800294607F0EBFFB0FA80F0400938BD00BF5B
S31500002810000010409C1AFE1F38B51446A3064FEA66
S3150000282092120D4618BF01320849094807F020FFE9
S3150000283008B1002038BD054A05482346294607F059
S31500002840CDFFB0FA80F0400938BD00BF000210404D
S315000028509C1AFE1F2DE9F04387B0FF2400F07F038A
S315000028608DF817401B481C4C8DF80F3016460D4648
S31500002870002240F2031107F0D3FB00222270174812
S31500002880072301220DF10F0106F0C4F92378002B6E
S31500002890FCD0013EDFF84480F6B24FF0000907276E
S315000028A0009701232A460DF11701404684F800904F
S315000028B006F0BAF92378002BFCD001350EB10026BC
S315000028C0EEE7012240F20311024807F0A9FB07B028
S315000028D0BDE8F083701AFE1FA806FE1FF01BFE1F40
S315000028E030B5002585B003462A4640F20311164846
S315000028F08DF807308DF80F5007F092FB9DF80F20EA
S31500002900124C1348257062F07F028DF80F200723C2
S3150000291001220DF10F0106F07DF92378002BFCD082
S315000029200021072321700A4801220DEB030106F05E
S3150000293071F92378002BFCD0012240F203110248E2
S3150000294007F06EFB05B030BD701AFE1FA806FE1F0D
S31500002950F01BFE1F30B5044683B001200D4609F07A
S315000029608DFB012240F203112C4807F059FB64202D
S3150000297009F084FB00200DF1070101228DF8070004
S31500002980FFF768FF9DF80730032C0CBF43F01000DB
S3150000299003F0EF000024FFF7A3FF0DF1070101226A
S315000029A020468DF80740FFF755FF9DF8070000F019
S315000029B07F00FFF795FF0DF10701012220468DF8F4
S315000029C00740FFF747FF9DF8070000F0BF00FFF73D
S315000029D087FF0DF10701012220468DF80740FFF71A
S315000029E039FF9DF8070000F0D30040F00200FFF722
S315000029F077FF204601220DF107018DF80740FFF70A
S31500002A0029FF9DF80700322D0CBF40F0010000F0B1
S31500002A10FE0003B0BDE83040FFF762BF701AFE1F2C
S31500002A2030B52DED028B002483B00546012009F058
S31500002A3025FB012201A920468DF80440FFF70AFF75
S31500002A409DF8043003F0D30343F00200FFF748FF7C
S31500002A50012201A920468DF80440FFF7FBFE9DF8F0
S31500002A60040040F08000FFF73BFF0A2009F006FB58
S31500002A70012201A920468DF80440FFF7EBFE9DF8E0
S31500002A80040040F02000FFF72BFF412009F0F6FA82
S31500002A90022201A90120ADF80440FFF7DBFEBDF8D4
S31500002AA004309FED407A9FED400ADFED407A5BBA35
S31500002AB0C3F34E0308EE103ABBEEE88A28EE078A07
S31500002AC028EE000A30EE270AB5EE400AF1EE10FABB
S31500002AD062D4F1EEC07A9FED367ADFED366A77EE94
S31500002AE0C77A87EEA67AB5EEC07AF1EE10FA40DA2A
S31500002AF09FED317ADFED316ADFED313A9FED315AE4
S31500002B009FED314ADFED315ADFED314AC8EE077AE3
S31500002B100023012201A907208DF8043067EE877A89
S31500002B2027EEA77A67EEA66A27EE876A76EEE36A4D
S31500002B3027EE057A27EE865A37EE267A26EE046ABF
S31500002B4065EE256A37EE467A67EE857A37EE667A5F
S31500002B5067EEA47A77EE877AC5ED007AFFF77AFEFC
S31500002B609DF80400B0FA80F0400903B0BDEC028B7A
S31500002B7030BD002385ED007A012201A907208DF8DA
S31500002B800430FFF767FE9DF80400B0FA80F04009B4
S31500002B9003B0BDEC028B30BD09F0B4FFF0EE407A15
S31500002BA099E700BF0000D7436F6DC6B2168393370F
S31500002BB03211803B7F059BB50000C8425B420E4048
S31500002BC01F0572433478293B06EFA1361317F232FC
S31500002BD03B99272F0379012B04BF014A13707047D5
S31500002BE0A806FE1F01704260704700BF2DE9F04F36
S31500002BF0064640689B46036883B01B688946904634
S31500002C009847002868D04845337842D909EB08022E
S31500002C1082423EDC8BF8003018F007024FF00103C9
S31500002C208BF80130C8F3C70370D18BF802308BF8EC
S31500002C300320B8F1000F00F09A800024CDF804803C
S31500002C4025460327B04615E02E460BEB070ADDB2F4
S31500002C50D8F80400036809EB04011B6989B2984798
S31500002C609AF80030B04003438AF80030019B0134E3
S31500002C70A34252D0082D05F10103E5D10137BFB2B9
S31500002C804FF000030BF807300BEB070A012500266F
S31500002C90DEE781200222394C8BF800308BF80100E8
S31500002CA08BF802200BF1030558464FF6FF7310F818
S31500002CB0012B5A40D2B2854234F8122082EA1323FD
S31500002CC0F5D1DAB20520C3F307238BF803208BF87E
S31500002CD0043003B0BDE8F08F3078284C8BF8000044
S31500002CE0012381228BF802308BF801200BF10305BA
S31500002CF058464FF6FF7310F8012B5A40D2B2A8423D
S31500002D0034F8122082EA1323F5D1DAE701338BF87F
S31500002D10023000238BF803308FE77B1CF81C9BB234
S31500002D2002375E1E80B2BFB2DBB19C460136134C41
S31500002D305E445D464FF6FF7215F8013B5340DBB229
S31500002D40B54234F8133083EA1222F5D1D4B20BEB34
S31500002D500C03C2F307221C700BF8072003B0BDE872
S31500002D60F08FFF225B46022001271446F3E7052772
S31500002D7006204FF0040C0326D8E700BFFC0701002D
S31500002D802DE9F04F064640689B46036883B05B68B2
S31500002D90894690469847002868D04845337842D9F6
S31500002DA009EB080282423EDC8BF8003018F007027D
S31500002DB04FF002038BF80130C8F3C70370D18BF8CC
S31500002DC002308BF80320B8F1000F00F09A8000243F
S31500002DD0CDF8048025460327B04615E02E460BEBBA
S31500002DE0070ADDB2D8F80400036809EB04015B6941
S31500002DF089B298479AF80030B04003438AF8003009
S31500002E00019B0134A34252D0082D05F10103E5D1FF
S31500002E100137BFB24FF000030BF807300BEB070A80
S31500002E2001250026DEE782200222394C8BF800308D
S31500002E308BF801008BF802200BF1030558464FF67C
S31500002E40FF7310F8012B5A40D2B2854234F8122093
S31500002E5082EA1323F5D1DAB20520C3F307238BF8F0
S31500002E6003208BF8043003B0BDE8F08F3078284C8F
S31500002E708BF80000012382228BF802308BF80120A8
S31500002E800BF1030558464FF6FF7310F8012B5A4015
S31500002E90D2B2A84234F8122082EA1323F5D1DAE737
S31500002EA001338BF8023000238BF803308FE77B1C4D
S31500002EB0F81C9BB202375E1E80B2BFB2DBB19C46E5
S31500002EC00136134C5E445D464FF6FF7215F8013B22
S31500002ED05340DBB2B54234F8133083EA1222F5D1FF
S31500002EE0D4B20BEB0C03C2F307221C700BF80720BD
S31500002EF003B0BDE8F08FFF225B460220012714468F
S31500002F00F3E7052706204FF0040C0326D8E700BF99
S31500002F10FC0701002DE9F047064640681D46036898
S31500002F209B68884617469847002847D033782B7009
S31500002F304FF003097B0085F80190AB70002F71D02C
S31500002F404FF0000A13E07068036821469B699847B2
S31500002F5009F101039BB20AF1010A09F10204020A0E
S31500002F60574505F80920A4B2E8543DD0A14670683B
S31500002F7008EB0A040368A4B29B6A21469847002816
S31500002F80E1D131782970022383222949AB706A7016
S31500002F90EC1C28464FF6FF7310F8012B5A40D2B2AC
S31500002FA0A04231F8122082EA1323F5D1DAB2C3F334
S31500002FB00723EA702B710520BDE8F0873178297068
S31500002FC0012383221A49AB706A70EC1C28464FF61F
S31500002FD0FF7310F8012B5A40D2B2A04231F81220EA
S31500002FE082EA1323F5D1E1E709F1040009F10309A7
S31500002FF0671E80B21FFA89FC01370D492F442E4601
S315000030004FF6FF7216F8013B5340DBB2BE4231F871
S31500003010133083EA1222F5D12A55120A05F80C203C
S31500003020BDE8F0874FF0040C05204C460227E3E785
S31500003030FC0701002DE9F047064640681D46036877
S31500003040DB68884617469847002849D033782B70A6
S315000030504FF004097B0085F80190AB70002F73D008
S315000030604FF003094FF0000A13E070680368214629
S31500003070DB69984709F101039BB20AF1010A09F1DC
S315000030800204020A574505F80920A4B2E8543DD0C7
S31500003090A146706808EB0A040368A4B2DB6A2146FD
S315000030A098470028E1D131782970022384222849E3
S315000030B0AB706A70EC1C28464FF6FF7310F8012BB4
S315000030C05A40D2B2A04231F8122082EA1323F5D137
S315000030D0DAB2C3F30723EA702B710520BDE8F08747
S315000030E031782970012384221949AB706A70EC1C6F
S315000030F028464FF6FF7310F8012B5A40D2B2A04271
S3150000310031F8122082EA1323F5D1E1E709F1040030
S3150000311009F10309671E80B21FFA89F901370C49C4
S315000031202F442E464FF6FF7216F8013B5340DBB292
S31500003130BE4231F8133083EA1222F5D12A55120A1B
S3150000314005F80920BDE8F087052003240227E5E7F6
S31500003150FC070100017070472DE9F04F83B09946D6
S31500003160DDF830800023A8F800300C4615460978B3
S315000031700278914260D1042D5BD9A5F1020E631944
S3150000318014F80E1013F8013CB34F01EB0321064669
S31500003190A64489B220464FF6FF7310F801CB8CEA9D
S315000031A0030C5FFA8CFC864537F81CC08CEA1323A7
S315000031B0F3D1994246D16188637849BA1FFA81FBF7
S315000031C0A188009191FA91FA013B1FFA8AFA0E2B17
S315000031D03FD8DFE813F093009C00A500AE00B700CF
S315000031E0E2003E003E003E003E003E003E003E0045
S315000031F03E000F008F2389F80130012389F8002053
S3150000320089F8023009F1030049464FF6FF7211F8BA
S31500003210013B5340DBB2884237F8133083EA12226F
S31500003220F5D1110A052389F8032089F80410A8F8B6
S31500003230003003B0BDE8F08F884803B0BDE8F04F1A
S315000032400BF092B986481A4603B0BDE8F04F0BF072
S315000032508BB9009B4FEA4A0C002BEAD0CDE9009CC3
S31500003260A24627E09AF807309AF808207D4802EB34
S3150000327003221FFA82F94A4659460BF075F970681F
S3150000328003684A465B6A59469847002840F0098118
S315000032902A46009821460BF098FB0AF1020A019A89
S315000032A0A8F80050AAEB04030BF1010B93421FFA96
S315000032B08BFBBEDA7068036859469B6A98470028FC
S315000032C0D0D1DDF800906378327889F8002063F079
S315000032D07F03022289F8022089F8013009F10300F0
S315000032E049464FF6FF7211F8013B5340DBB2884264
S315000032F037F8133083EA1222F5D192E74B4652464D
S3150000330059463046FFF772FCA8F8000091E74B4695
S31500003310524659463046FFF733FDA8F8000088E7C5
S315000033204B46524659463046FFF7F4FDA8F80000D2
S315000033307FE74B46524659463046FFF77BFEA8F8D4
S31500003340000076E7706803681B689847002800F05D
S315000033508D80834580F0C280009B002B4BD0B3F557
S315000033607F4F48D06378327889F8002063F07F0376
S31500003370032289F8022009EB020089F80130494648
S315000033804FF6FF7211F8013B5340DBB2814237F82A
S31500003390133083EA1222F5D143E770680368594671
S315000033A09B6A984700283CD0524659462D480BF058
S315000033B0DBF87068036852465B6A5946984740B323
S315000033C06378327889F8002063F07F03032289F856
S315000033D0022009EB020089F8013049464FF6FF72D8
S315000033E011F8013B5340DBB2814237F8133083EAD0
S315000033F01222F5D115E7524659461B480BF0B4F890
S31500003400009B70681A1E036818BF01221B6A594682
S3150000341098472A46214648460BF0D7FAA8F80050A6
S3150000342007E76378327889F8002063F07F03022289
S3150000343089F8022089F8013009F1030049464FF660
S31500003440FF7211F8013B5340DBB2814237F813306B
S3150000345083EA1222F5D1E4E6FC07010010FB000026
S3150000346030FB0000F0FA0000D4FA000063783278EE
S3150000347089F8002063F07F03012289F8022089F889
S31500003480013009F1030049464FF6FF7211F8013B7E
S315000034905340DBB2814237F8133083EA1222F5D16A
S315000034A0BFE6DDF800906378327889F8002063F093
S315000034B07F03032289F8022009EB020089F8013014
S315000034C049464FF6FF7211F8013B5340DBB2814289
S315000034D037F8133083EA1222F5D1A2E66378327800
S315000034E089F8002063F07F03022289F8022089F818
S315000034F0013009F1030049464FF6FF7211F8013B0E
S315000035005340DBB2814237F8133083EA1222F5D1F9
S3150000351087E600BF10B5104C104894F82F2094F899
S315000035202A1000F0ADF894F82F2094F82B100C48D0
S3150000353000F0A6F894F82F2094F82C10094800F013
S315000035409FF894F82F2094F82D10074800F098F86B
S31500003550BDE8104008F0BABDE013FE1FD006FE1FFE
S31500003560C406FE1FB806FE1FAC06FE1F00B583B0DC
S3150000357001A8FFF755FAD0B19DED017AF2EE047A73
S3150000358067EE277A17EE900A09F096FC41EC100BCD
S3150000359009F0DEFA51EC100B09F0E6FC002180B2CE
S315000035A0044A054B1170188003B05DF804FB012135
S315000035B0F6E700BFDC06FE1FDE06FE1F10B51A4B3F
S315000035C01A788AB9194A1A4BB2F939401B881C4431
S315000035D0184B1B78012BA4B20FD01748214600F0D8
S315000035E057F860B1042010BD5C78124B1B7804EBD1
S315000035F08404012B4FEA4404EFD1052010BD0F4887
S31500003600214600F045F808B1032010BD0C482146BC
S3150000361000F03EF828B921460A48BDE8104000F0FF
S3150000362037B8022010BD00BF8801FE1FE013FE1F41
S31500003630DE06FE1FDC06FE1FAC06FE1FB806FE1FDA
S31500003640C406FE1FD006FE1F074B1A783AB9074A72
S31500003650074BB2F939001B88184480B27047587876
S3150000366000EB8000400070478801FE1FE013FE1F3C
S31500003670DE06FE1F014B1878704700BFDC06FE1FF2
S3150000368001EB810149000023C0E900120372704773
S31500003690D0E9003203EB020C8C4506DB10B4047A49
S315000036A03CB900205DF8044B7047012303720120EA
S315000036B070479B1A8B4201DA0120F3E7C4BF00234F
S315000036C00372EEE7064BA3FB0023DB0803EB830242
S315000036D0A0EB42003033303040EA032080B270471E
S315000036E0CDCCCCCC030A303B9BB2C0B203EB8303F8
S315000036F0303800EB430080B2704700BF10B4084971
S31500003700084A094C0C600023084C09481370C1F89C
S31500003710064000685DF8044B1A4607F097BD00BFE7
S31500003720E006FE1FBC00FE1F82020400AA55A55A31
S315000037306C1AFE1F704700BF014B1878704700BF18
S31500003740BC00FE1F4388144A142B014610780AD089
S31500003750B3F5805F07D01F2812D8104B53F820000E
S3150000376003685B681847CB8841F201018B420C491C
S3150000377007D083420B8003D0DBB21F2B137005D911
S315000037807047012398420B80FAD01370034A52F80F
S31500003790230003681B681847BC00FE1FC000FE1FFD
S315000037A0DE07FE1F054B1B781F2B05D8044A52F86F
S315000037B0230003689B681847704700BFBC00FE1FC4
S315000037C0C000FE1F10B50E4C22781F2A06D80D4BDE
S315000037D053F822000368DB68984722780A4B1B8857
S315000037E09A420BD0DBB21F2B237007D8054A52F83A
S315000037F023000368BDE810401B68184710BD00BFD2
S31500003800BC00FE1FC000FE1FDE07FE1F084B094A54
S315000038101B881178994209D0DBB21F2B137005D88B
S31500003820054A52F8230003681B681847704700BF13
S31500003830DE07FE1FBC00FE1FC000FE1F30B4074C93
S31500003840074DE18002464FF4C1702080628000235C
S31500003850286821461A4630BC07F0F8BCE006FE1F71
S315000038606C1AFE1F10B40749074C024640F2831C2F
S315000038704A800023A1F800C020685DF8044B1A4670
S3150000388007F0E4BCE006FE1F6C1AFE1FF0B5164CEE
S31500003890822360802380EAB1551E25F00105033599
S315000038A04FF0010C00204E1E16F90C3004EB400EB2
S315000038B01B0201309445C0B203F47F4303DA11F9C9
S315000038C00C703B439BB20CF1020C6545AEF806301A
S315000038D06070E9D1054A044910680023BDE8F0404C
S315000038E01A4607F0B3BC00BFE006FE1F6C1AFE1FA7
S315000038F010B40549054A064C0C60002310685DF8B3
S31500003900044B1A4607F0A2BCE006FE1F6C1AFE1F07
S315000039108301140030B40849084C094A094D208037
S3150000392045F6012C088100230D60A1F806C0106839
S3150000393030BC1A4607F08ABCE006FE1FDE07FE1FF3
S315000039406C1AFE1F8202840030B51E4C054600210B
S3150000395083B0802321701C481022294605F054F8B4
S315000039600190019B03B100BF2378002BFCD01022ED
S3150000397080231548A91805F047F80190019B03B16B
S3150000398000BF2378002BFCD080230F48102205F1BE
S31500003990200105F039F80190019B03B100BF23789F
S315000039A0002BFCD080230848102205F1300105F0D9
S315000039B02BF80190019B03B100BF2378002BFCD0AC
S315000039C003B030BDE807FE1F781AFE1F2DE9F04F41
S315000039D095499648964C974E974DDFF86C82974FCF
S315000039E09BB004F023FFFEF791FE954B0DF15A0AAA
S315000039F003F1300B4FF0000920684FF47A720AA9E0
S31500003A0007F066FD0128F7D1338829880133338012
S31500003A104A1C9DF8283008F8013092B2032A03F1B7
S31500003A20FF332A8088BFA5F80090082BE4D8DFE88A
S31500003A3003F0D6AD8A6E51342A0B0500FEF74AFE16
S31500003A400AA8FFF781FFD7E7FEF7C0FD08238DF828
S31500003A50283000B303798DF82A30C3788DF82B30DF
S31500003A6043798DF8293003788DF82C3043788DF81A
S31500003A702D3083788DF82E3083798DF82F300AA873
S31500003A80FFF762FFB8E70020FEF76CFD07238DF80D
S31500003A9028300028DED10023EFE701A9694806F0A7
S31500003AA08FF806238DF82830019B8DF82930029B6C
S31500003AB08DF82A30039B8DF82B30049B8DF82C3023
S31500003AC0059B8DF82D300AA8069B8DF82E30FFF742
S31500003AD03BFF91E79DF8293001939DF82A30029328
S31500003AE09DF82B3003939DF82C3004939DF82D30D0
S31500003AF0059354489DF82E30069306F05BF801A90D
S31500003B00504806F0B1F90AA8FFF71EFF74E7DDF882
S31500003B102A203A606FF05A033B707B70DDF82E3036
S31500003B207B60DDF83230BB60DDF83630FB60BDF817
S31500003B303A303B829DF83C30BB74FEF729F90AA85F
S31500003B40FFF702FF58E7FEF73BF90123BB748DF838
S31500003B503C303B68CDF82A307B6887F80F90CDF86B
S31500003B602E30BB6887F8109087F81190CDF8323068
S31500003B70FB68CDF836303B8AADF83A300AA841F2F8
S31500003B800333ADF82830FFF7DFFE35E72C4B0DF198
S31500003B902A02116819605168596091689960D16864
S31500003BA0D9601032524503F11003F2D1DAF8001051
S31500003BB01960DAF804105960BAF8081019819AF8F1
S31500003BC00A1099721E496FF05A0201230A704A7050
S31500003BD08B70FEF7DFF80AA8FFF7B6FE0CE743F690
S31500003BE00133174AADF828300DF12A031168196020
S31500003BF05168596091689960D168D96010325A4508
S31500003C0003F11003F2D1DBF800201A60DBF8042080
S31500003C105A60BBF808201A819BF80A209A720AA8F3
S31500003C20FFF792FEE8E600BF400A0100781AFE1F81
S31500003C30F417FE1FE007FE1FE207FE1F0805FE1F22
S31500003C40E013FE1FD81BFE1FE407FE1F704700BFD0
S31500003C50024A0349034808F03FBE00BF0000FE1FAA
S31500003C60492700009001FE1F2DE9F84F5649574895
S31500003C70DFF870B1564C574FDFF86091564DDFF8BC
S31500003C807C81DFF87CA105F08DFB002618E0BBF8EF
S31500003C9002305BBAA9F804309BF8003089F803308B
S31500003CA04AF25A52832BA9F800206CD0822B74D08A
S31500003CB006224A49454805F003FB012008F0DEF9D3
S31500003CC0474B48491868002207F002FC0128DED05D
S31500003CD023683A689342F0D02A78032A0CD8DFE8A2
S31500003CE002F018281F02404A18F803309355DAF8F4
S31500003CF000300136B34223DD23680133B3F5007F7C
S31500003D00AABF00221A46134622603A689A42E3D1B5
S31500003D10D3E718F803305A2BEED101232B70EBE7CB
S31500003D2018F80330CAF800304FF003032B70002652
S31500003D30E2E718F80330A52BDED102232B70DBE770
S31500003D40B2F8013029495BBA4B80D37812788B8060
S31500003D500A706BB1244A264902EB430C13461879C4
S31500003D605A79023342EA0022634521F8022FF6D13E
S31500003D70204A1E49106800231A4607F067FA4FF0DA
S31500003D8000032B70B8E79BF8013089F80630013341
S31500003D905B0089F8023007228BE79BF801104B0085
S31500003DA0033389F80230002982D013480B4B09EB04
S31500003DB0410C30F8022FDA71120A9A7102339C45CF
S31500003DC0F7D1CA1C520074E7840A0100441BFE1F87
S31500003DD0F80BFE1FF40BFE1FF00BFE1FF00AFE1F72
S31500003DE06C1AFE1FEC08FE1FEC09FE1FEC07FE1FF7
S31500003DF0F007FE1F6817FE1FF008FE1FFC0BFE1FD4
S31500003E00EC0AFE1F0379042B00D0704710B4074B51
S31500003E10074C1968806860544A1CB2F5007F1A6026
S31500003E20A4BF00221A605DF8044B7047F40BFE1F16
S31500003E30FC0BFE1F30B583B0144801A905F05EFEE9
S31500003E409DF80530E3B112491248134D0F4C04F0AA
S31500003E5013FFFDF753FD32210320FEF77BFDFEF72E
S31500003E6093FA2946204605F0ABFEFFF77FFBFEF7E7
S31500003E70A5FAFDF75BFD4FF47A7008F0FFF8F0E75E
S31500003E800649024805F054FFDDE700BFD81BFE1FB8
S31500003E90E40A0100F01BFE1FFC0DFE1FBC0A010018
S31500003EA0022800D07047024B0248596806F0B8B99C
S31500003EB0300A0100701AFE1F2DE9F04F4D484E4B97
S31500003EC04E4A4F4E4F4D504F8DB0002400944FF444
S31500003ED082710480022007F00BF92246034640F265
S31500003EE007114A48336006F09BF84949494806F0ED
S31500003EF0E3FAFDF787FF0FCD04AC0FC495E80F007A
S31500003F0097F836E04FF0020CBEF1030F84E80F007D
S31500003F108DF811C005D0E6450CBF4FF0030C4FF0ED
S31500003F20000C97F837303C488DF812C0A3F1020315
S31500003F30B3FA83F35B0904A98DF8133005F032FA5E
S31500003F4097F83530354D364CDFF8E480DFF8E490ED
S31500003F50013BDBB2062B9CBF324A52F823004FF0DE
S31500003F600002114688BF002003AB05F0E7FB03A95A
S31500003F70294805F0CDF997F834102B482B4FFFF759
S31500003F80E9F805F1010A30684FF47A72294607F01C
S31500003F909FFA0128834609D023780133DBB2042B2C
S31500003FA04FF000022370EED93A70ECE72B7800222E
S31500003FB0227013B101233B70E5E7B5F802211A48D8
S31500003FC0CDF800804B465146FFF7C6F8B8F80030EA
S31500003FD0002BEFD05A4640F207110C4806F020F8A5
S31500003FE0022008F04BF8B8F800200B48494605F0C7
S31500003FF067F9DFE7C812FE1F8012FE1F2810FE1F9A
S31500004000CC13FE1F180B0100E013FE1F701AFE1FD3
S315000040106C0A01009C1AFE1F9821FE1F240FFE1F2A
S31500004020200EFE1FFC090100D413FE1F1B14FE1FE9
S31500004030220EFE1F240EFE1F03791E4A042B137048
S3150000404002D0022B26D0704770B51B4A1B49138835
S3150000405004468068C85484B01949013300250E68A7
S315000040601380039508F038F803AB02460095072144
S31500004070304608F0F9FB039B3BB1124B4FF08052E0
S315000040805A60BFF34F8FBFF36F8F2379022B07D090
S3150000409004B070BD0C48002240F2071105F0C0BF05
S315000040A00948002240F2071104B0BDE8704005F04F
S315000040B0B7BF00BFD013FE1FC812FE1FCC12FE1FD3
S315000040C02018FE1F00ED00E0701AFE1F30B50B4CE5
S315000040D00B492288C3B000250DF10500ADF8062175
S315000040E08DF804500AF071FC064A258010682B46AC
S315000040F001A92A4607F0AAF843B030BDC812FE1F30
S31500004100CC12FE1FCC13FE1F10B5054C2046FDF742
S31500004110E1FD22460348BDE810403421FEF762BDAA
S31500004120DC13FE1FD413FE1F2DE9F04383B00021DC
S3150000413000911E4B1E4A1F4E1F4D204FDFF88080F8
S31500004140FE21022006F0D4FF4FF00209306012E093
S315000041503C78FCB1022C0BD1D8F800300133012B8E
S31500004160C8F8003004DDFFF7C3FB0023C8F80030B1
S31500004170FFF718FB30686422294607F0A9F90128E1
S31500004180E6D12B78822B0CD0832BF3D12846FFF770
S31500004190D9FAEFE7FFF7B2FA87F80090C8F80040BF
S315000041A0E8E72846FFF70EFBE4E700BF2017FE1FEF
S315000041B02415FE1F6817FE1F2414FE1F2014FE1F61
S315000041C01C14FE1F00B583B000211A4B00911A4A39
S315000041D04FF48071022006F08BFF184B1860E0B197
S315000041E01749184A18480023CDE900211A460B2121
S315000041F008F0F8FA154B0146186090B10021144BEF
S315000042000091144A0121402006F072FF124B01462C
S31500004210186048B103B05DF804FB014600F0C2F82F
S31500004220DEE700F0BFF8E9E703B05DF804EB00F065
S31500004230B9B800BF241AFE1F2418FE1F6C1AFE1FF1
S31500004240F817FE1FCD4000005CFB00002018FE1F83
S31500004250AC17FE1F6C17FE1FF417FE1F10B50446A1
S3150000426000F0A2F82046BDE81040FFF7AFBB00BF44
S3150000427030B50E4C0E4923680E4D85B001229818B4
S31500004280CDE9011500920C4B20600C490C484FF407
S31500004290807207F04DFD0B4B186008B105B030BDBC
S315000042A0014605B0BDE8304000F07CB89421FE1F01
S315000042B0C02DFF1FE41AFE1F3C0A010068FB000028
S315000042C05D420000E01AFE1F10B5044600F06CF8CF
S315000042D02046BDE81040FFF7C7BC00BF30B50E4C06
S315000042E00E4923680E4D85B001229818CDE90115B7
S315000042F000920C4B20600C490C484FF4807207F07A
S3150000430017FD0B4B186008B105B030BD014605B06E
S31500004310BDE8304000F046B89421FE1FC031FF1FB3
S31500004320781BFE1F800A010078FB0000C9420000CE
S31500004330741BFE1F10B5044600F036F82046BDE893
S315000043401040FFF777BD00BF30B50E4C0E4923680D
S315000043500E4D85B001229818CDE9011500920C4B3F
S3150000436020600C490C484FF4807207F0E1FC0B4BBF
S31500004370186008B105B030BD014605B0BDE8304053
S3150000438000F010B89421FE1FC035FF1F241CFE1F2D
S31500004390B80A010080FB000035430000201CFE1F08
S315000043A0FFF710BF00BE704738B5164C4FF0FF310F
S315000043B0206807F049F9012803D020680021FFF79B
S315000043C0F1FF114B1A7802B138BD01221A70FFF7BE
S315000043D0E7FF0E4D2B68013B2B60002BF4D000232A
S315000043E0194620681A4606F031FF01284FF00001F1
S315000043F0F0D02068FFF7D6FF2B68013B2B60002B1F
S31500004400EDD138BD8C21FE1F9021FE1F9421FE1F89
S315000044101048114A10B50023104C037001214FF4C7
S315000044208070236006F0D4FE0D4B186068B1FFF76C
S3150000443055FFFFF71DFFFFF787FF00F039F800F083
S315000044406DF807F0E1FC002010BD0146FFF7AAFF5A
S31500004450EDE700BF9021FE1F4421FE1F9421FE1FA1
S315000044608C21FE1F044B036010B48023034C0C60A8
S315000044705DF8044B13607047E420FE1FE41EFE1F28
S31500004480044B036010B48023034C0C605DF8044BAE
S3150000449013607047841EFE1F841CFE1F10B5044661
S315000044A0FFF782FF2046BDE81040FFF705BD00BFBD
S315000044B030B50E4C0E4923680E4D85B00122981872
S315000044C0CDE9011500920C4B20600C490C484FF4C5
S315000044D0807207F02DFC0B4B186008B105B030BD9B
S315000044E0014605B0BDE83040FFF75CBF9421FE1FD2
S315000044F0C039FF1FCC21FE1F140B01008CFB0000EE
S315000045009D440000C821FE1F10B50446FFF74CFF6E
S315000045102046BDE81040FFF707BE00BF30B50E4C81
S315000045200E4923680E4D85B001229818CDE9011574
S3150000453000920C4B20600C490C484FF4807207F037
S31500004540F7FB0B4B186008B105B030BD014605B04E
S31500004550BDE83040FFF726BF9421FE1FC03DFF1F78
S315000045603022FE1FCC0B01009CFB00000945000019
S315000045702C22FE1F00BEFEE71EF0040F0CBFEFF359
S315000045800880EFF309800149084700001146000042
S315000045900D4B1968EFF309821EF0100F08BF22EDCC
S315000045A0108A22E9F04F0A604FF0100080F311885C
S315000045B0BFF34F8FBFF36F8F07F0A6FD4FF00000DC
S315000045C080F3118800F002B87427FF1F06480168BF
S315000045D00A68B2E8F04F1EF0100F08BFB2EC108A5E
S315000045E082F30988704700007427FF1F10B5EFF3A8
S315000045F01184102383F3118807F076FD18B1034B5D
S315000046004FF080525A6084F3118810BD00ED00E02F
S3150000461008B5836913F8023C022B02D0032B04D899
S3150000462008BDBDE80840FFF7D1BF034B034A044865
S3150000463040F2054106F002FAA4FB0000EC0C010072
S31500004640B8FB000010B44FF08071074C40F8041C12
S3150000465022F001026FF0020140E9034240E909132A
S3150000466044385DF8044B70477545000008B5EFF314
S315000046701181102383F311880A4A13680133012B31
S31500004680136000D008BD084A084B11605B68C3F38D
S315000046900803002BF6D0064B064A074840F2F641BF
S315000046A006F0CCF99C22FE1F9822FE1F00ED00E0CA
S315000046B0E0FB0000C40C0100B8FB000008B5094A85
S315000046C013683BB1013B13601BB9074B1B6883F3AF
S315000046D0118808BD054B064A064840F2FF4106F020
S315000046E0ADF900BF9C22FE1F9822FE1F28FC000089
S315000046F0B00C0100B8FB000080B3194B9A8990B248
S31500004700120409D4BFF34F8F30BFBFF36F8F62B669
S31500004710BFF36F8F72B67047B3F8FE2392B24AF2B8
S3150000472002514FF0000C42F42542A3F8FE13A3F801
S315000047300CC0A3F8FE23BFF34F8F30BFBFF36F8FBC
S3150000474062B6BFF36F8F72B6B3F8FE23A3F8FE13FB
S3150000475092B242F425429881A3F8FE23704700BF27
S3150000476000E0014008B572B607F098FB0120FFF79C
S31500004770C3FF62B6BDE8084007F098BB0B4B0C4A76
S315000047801B68A2FB03239B09013BB3F1807F0BD27D
S315000047904FF0E022074853614FF0F00C0021072349
S315000047A080F823C091611361704700BF0036FE1F79
S315000047B0D34D621000ED00E010B5264B264C1A785A
S315000047C0264882B0FF21D2B28DF8032019701B78DB
S315000047D0DBB20193019B019AC3F300130721120672
S315000047E02370016048BF06220BD5019B5B00019335
S315000047F0019B1B06114602F1FF32F6D4032907D0AE
S315000048000160174B174A184840F2A24106F016F904
S315000048109DF80330154A0F4C4FF440710160DBB22E
S31500004820F021237082F82210FFF7A8FF104A536B7D
S3150000483043F04043536362B6BFF36F8FEFF3148CBC
S315000048402CF0040C8CF31488BFF36F8F02DF00BECC
S31500004850FDE700BF00E400E09422FE1F9022FE1F49
S315000048603CFC0000D80C0100B8FB000000ED00E0A5
S3150000487000EF00E008B5EFF30383103B1A0608D5F6
S31500004880114B124ADB681268C3F302239A4214D30F
S3150000489008BD03F0FF0202F1604303F561430C4AD1
S315000048A093F800331278B2EB131FE9D9094B0A4A81
S315000048B00A484FF4C66106F0C1F8094B064A074894
S315000048C040F2426106F0BAF800ED00E09022FE1FC9
S315000048D09422FE1F68FC0000900C0100B8FB00004B
S315000048E094FC00001A4B1B88012B00D0704710B5B2
S315000048F090F82210C368028D04698AB0022914BF99
S315000049004FF0820C4FF0800C1B1B042A03938DF88A
S3150000491006108DF807C017D0052A12D0032A40F2D8
S31500004920DC5308BF002390F824C0C269ADF80830F4
S3150000493001A909208DF804C0069201F0C9FE0AB04B
S3150000494010BD40F2DF53EEE740F2DE53EBE700BF67
S31500004950FC24FE1F164B1B88012B00D0704700B5A8
S3150000496090F82220012A8BB01ED0002A0CBF4FF0EF
S31500004970820E4FF0810E018D90F824C08DF806202E
S315000049800129C169069140F2DC5301A908BF002341
S315000049900A208DF807E0ADF808308DF804C001F064
S315000049A097FE0BB05DF804FB4FF0800EE3E700BF07
S315000049B0FC24FE1F10B5044631B900F01BFEC305EA
S315000049C017D54FF4807010BD00F08CFE204600F025
S315000049D0A1FE10F4807F204606D000F0E1FE800A9A
S315000049E00130800180B210BD00F0F0FEC0F30A0075
S315000049F010BD204600F032FE00F07F0010BD00BF63
S31500004A002DE9F843564B90F8248033F818309BB2C2
S31500004A10022B04460D4650D000F080FC2946204665
S31500004A2000F0BAFC2946204600F000FD2946204643
S31500004A3001F032FE2946204600F054FE6423494F19
S31500004A4003FB08F305EB850203EB42033B444646B2
S31500004A5059884FEA8509204600F078FE012E69D074
S31500004A606426A94406FB08F606EB49063E442046A2
S31500004A70F18800F0C7FE3189204600F0DBFE2046B3
S31500004A80002100F02FFE2946204600F079FF294636
S31500004A90204601F0EDFD2946204600F015FF294687
S31500004AA0204600F0F1FC2946204600F00BFD294681
S31500004AB02046BDE8F84300F023BD2B4E56F82100F2
S31500004AC008B106F0C3F900232946204646F82530EA
S31500004AD002F056FD29460746204694F8246000F069
S31500004AE01DFC2946204600F057FC2946204600F0CA
S31500004AF09DFC013F2946204601F0CEFDBFB2294666
S31500004B00204600F0EFFD012F164F1DD8642305EB5C
S31500004B10850206FB03F303EB42033B442046598818
S31500004B2041F48061598000F011FE012EB0464FEA33
S31500004B30850995D109EB050307EB43032046B3F836
S31500004B40681000F01BFE8BE764230A2206FB03F3C2
S31500004B5002FB05333B44B04659884FEA85097AE79C
S31500004B600C30FE1FCC22FE1F9423FE1F70B5364B61
S31500004B7090F8242033F812309BB2022B05460E46DD
S31500004B8058D03146284601F087FD3146284600F0C8
S31500004B90C5FB3146284600F0FFFB3146284600F0AB
S31500004BA045FC48F22F034FF400420021284600F04E
S31500004BB069FA0021284600F02FFA10F02F04F8D1E8
S31500004BC03146284600F08EFD2146284600F0BEFDFF
S31500004BD02146284600F0D2FD2146284600F012FE66
S31500004BE02146284600F026FE2146284600F07AFD9A
S31500004BF03146284600F0C4FE3146284601F038FD0D
S31500004C003146284600F060FE3146284600F064FF33
S31500004C103146284600F07EFF3146284600F034FC37
S31500004C203146284600F04EFC31462846BDE8704025
S31500004C3000F066BC054C54F8210008B106F006F9F0
S31500004C40002344F826309CE70C30FE1F9423FE1FF9
S31500004C5070B5012206460D4600F0F8FE4FF6FF74C9
S31500004C602946304600F0FEFD013C10F0200FA4B2AC
S31500004C7000D170BD002CF3D170BD00BF70B50546E4
S31500004C801646B2B164240AE000F05CF8013C2846FE
S31500004C9000F0DCF8A4B20A2001F062F8DCB131467B
S31500004CA0284600F073FA03469A042846ECD51846BF
S31500004CB070BD41EA030444F4004248F22F03314632
S31500004CC000F0E0F90021284600F0A6F900F02F00D8
S31500004CD08442F7D1D6E7FF23184670BD02B170476C
S31500004CE038B543EA0104114648F22F0344F4004262
S31500004CF0054600F0C7F90021284600F08DF900F0BE
S31500004D002F008442F7D138BD70B504460D461646CD
S31500004D1000F000FF29462046324600F019FF2946DA
S31500004D202046BDE8704000F0B9BE00BF38B5044665
S31500004D300D4600F0D1FE29462046BDE8384000F079
S31500004D40E9BE00BF094B90F8242033F812309BB21D
S31500004D50022B01D0002070471AB9054B188880B283
S31500004D607047044B188880B2704700BF0C30FE1F96
S31500004D700000094000000640012805D1034A1388B7
S31500004D809BB243F480731380704700BF0000064057
S31500004D90094B90F8242033F812309BB2022B00D036
S31500004DA07047012AFCD1054A138823F480731B043B
S31500004DB01B0C1380704700BF0C30FE1F000006401E
S31500004DC0084B90F8242033F812309BB2022B00D007
S31500004DD07047012AFCD1044A13889BB243F0800332
S31500004DE0138070470C30FE1F00000640094B90F8F8
S31500004DF0242033F812309BB2022B00D07047012AD0
S31500004E00FCD1054AB2F840319BB20B43A2F84031BF
S31500004E10704700BF0C30FE1F00000640094B90F89B
S31500004E20242033F812309BB2022B00D07047012A9F
S31500004E30FCD1054AB2F840319BB223EA0103A2F83D
S31500004E40403170470C30FE1F00000640094B90F8B9
S31500004E50242033F812309BB2022B01D00020704779
S31500004E601AB9054B988880B27047044B988880B26F
S31500004E70704700BF0C30FE1F0000094000000640CE
S31500004E80094B90F8242033F812309BB2022B01D044
S31500004E90002070471AB9054B188980B27047044B39
S31500004EA0188980B2704700BF0C30FE1F0000094011
S31500004EB000000640064B90F8242033F812309BB2CF
S31500004EC0022B00D07047002AFCD0024B9981704714
S31500004ED00C30FE1F00000640084B90F8242033F8E3
S31500004EE012309BB2022B01D0002070470029FBD163
S31500004EF0012AF9D1024B5869704700BF0C30FE1FDA
S31500004F0000000640074B90F8240033F810309BB29F
S31500004F10022B00D070470029FCD1012804BF024BA8
S31500004F205A6170470C30FE1F00000640094B90F88E
S31500004F30242033F812309BB2022B01D00020704798
S31500004F400029FBD1012A0BBF034B044BD88A988A50
S31500004F5080B270470C30FE1F00000640000009407A
S31500004F60134B90F8240033F810309BB2022B0DD06F
S31500004F70012913D0022903D039B90E4B9A82704702
S31500004F800C4B9A8370470C4BDA8370470128EFD19C
S31500004F90012909D00229F6D019B17047054B1A83A9
S31500004FA07047054BDA827047034B5A83704700BF40
S31500004FB00C30FE1F0000094000000640134B90F81D
S31500004FC0240033F810309BB2022B0DD0012913D0E8
S31500004FD0022903D039B90E4B1A7570470C4B1A7754
S31500004FE070470C4BDA7770470128EFD1012909D0B9
S31500004FF00229F6D019B17047054B1A767047054B52
S31500005000DA757047034BDA76704700BF0C30FE1F27
S315000050100000094000000640134B90F8242033F8A6
S3150000502012309BB2022B1CD1012912D0022907D1C2
S315000050300E490F4B012A08BF0B46188880B27047ED
S3150000504079B90C490C4B012A08BF0B46188880B267
S3150000505070470A490A4B012A08BF0B46188880B2D6
S31500005060704700231B88FFDE0C30FE1F2C00064015
S315000050702C00094020000640200009402800064078
S315000050802800094010B4174C90F824C034F81C00CE
S3150000509080B2022822D1012919D0022906D112484C
S315000050A01249BCF1010F08BF084606E0B1B9104825
S315000050B01049BCF1010F08BF0846018889B21A40A1
S315000050C021EA0303134303805DF8044B70470A4843
S315000050D00A49BCF1010F08BF0846EEE700231B880A
S315000050E0FFDE00BF0C30FE1F2C0009402C000640DE
S315000050F020000940200006402800094028000640FC
S3150000510010B41B4C90F8240034F810309BB2022BDC
S3150000511004D101291AD0022924D0E9B1002134F89A
S3150000512010309BB2022B02D05DF8044B70470B88FF
S3150000513023F440631B041B0C0B80002AF4D00B885D
S315000051409BB213430B805DF8044B704709490A4B29
S31500005150012808BF1946E2E70849094B012808BF9C
S315000051601946DCE70749084B012808BF1946D6E768
S315000051700C30FE1F28000940280006402000094088
S31500005180200006402C0009402C000640134B90F8E6
S31500005190242033F812309BB2022B1CD1012912D0E5
S315000051A0022907D10E490F4B012A08BF0B46188862
S315000051B080B2704779B90C490C4B012A08BF0B46DF
S315000051C0188880B270470A490A4B012A08BF0B4665
S315000051D0188880B2704700231B88FFDE0C30FE1F44
S315000051E02E0006402E0009402200064022000940FB
S315000051F02A0006402A000940144B90F8242033F870
S3150000520012309BB2022B1DD1012915D0022905D1DE
S315000052100F49104B012A08BF194605E091B90E49FE
S315000052200E4B012A08BF19460B886FEA43436FEA03
S3150000523053439BB20B80704709490A4B012A08BFAA
S315000052401946F1E700231B88FFDE00BF0C30FE1F66
S315000052502E0009402E00064022000940220006408A
S315000052602A0009402A000640154B90F8242033F8FE
S3150000527012309BB2022B1FD1012914D0022908D16A
S31500005280104B1149012A08BF0B464FF480421A8081
S31500005290704789B90D4B0E49012A08BF0B464FF4DA
S315000052A080421A8070470B4B0B49012A08BF0B46F8
S315000052B04FF480421A80704700231B80FFDE00BF38
S315000052C00C30FE1F2E0009402E0006402200094029
S315000052D0220006402A0009402A0006400C4B90F89E
S315000052E0242033F812309BB2022B00D070470123E2
S315000052F08B409BB22AB90749CA8E92B21343CB861A
S3150000530070470549CA8E92B21343CB86704700BFD9
S315000053100C30FE1F00000940000006400B4B90F8C1
S31500005320242033F812309BB2022B00D070470123A1
S315000053308B40DB439BB222B9054AD18E0B40D38604
S315000053407047044AD18E0B40D38670470C30FE1F3F
S3150000535000000940000006400C4B90F8242033F86A
S3150000536012309BB2022B00D0704701238B409BB2B8
S315000053702AB907490A8F92B213430B87704705492A
S315000053800A8F92B213430B87704700BF0C30FE1F83
S3150000539000000940000006400B4B90F8242033F82B
S315000053A012309BB2022B00D0704701238B40DB43A7
S315000053B09BB222B9054A118F0B4013877047044AE6
S315000053C0118F0B40138770470C30FE1F00000940F9
S315000053D000000640114B90F8242033F812309BB29F
S315000053E0022B00D0704701238B409BB25AB910B4F0
S315000053F00B4C0C4824F81120428F92B2134343877A
S315000054005DF8044B7047064A0A31002022F8110065
S3150000541005494A8F92B213434B8770470C30FE1FE3
S31500005420A422FE1F00000940000006400B4B90F826
S31500005430242033F812309BB2022B00D07047012390
S315000054408B40DB439BB222B9054A518F0B405387F1
S315000054507047044A518F0B40538770470C30FE1F2C
S31500005460000009400000064020B9054BB3F8400093
S3150000547080B27047034BB3F8400080B2704700BF5C
S3150000548000000940000006400B4B90F8242033F83A
S3150000549012309BB2022B00D0704701238B40DB43B6
S315000054A0C3F309031AB9054AA2F846307047044AFD
S315000054B0A2F84630704700BF0C30FE1F00000940BE
S315000054C0000006400B4B90F8242033F812309BB2B4
S315000054D0022B00D0704701238B40DB43C3F3090343
S315000054E01AB9054AA2F848307047044AA2F848306B
S315000054F0704700BF0C30FE1F000009400000064048
S315000055000B4B90F8242033F812309BB2022B00D0BC
S31500005510704701238B40DB43C3F309031AB9054ADD
S31500005520A2F84A307047044AA2F84A30704700BFD2
S315000055300C30FE1F00000940000006400A4B90F8A0
S31500005540242033F812309BB2022B01D00020704782
S3150000555022B9064BB3F84C0080B27047044BB3F83F
S315000055604C0080B2704700BF0C30FE1F000009409F
S315000055700000064020B9054BB3F8540080B27047CE
S31500005580034BB3F8540080B2704700BF00000940D7
S315000055900000064020B9054BB3F8560080B27047AC
S315000055A0034BB3F8560080B2704700BF00000940B5
S315000055B00000064020B9054BB3F8580080B270478A
S315000055C0034BB3F8580080B2704700BF0000094093
S315000055D00000064020B9054BB3F85A0080B2704768
S315000055E0034BB3F85A0080B2704700BF0000094071
S315000055F0000006400A4B90F8242033F812309BB284
S31500005600022B01D00020704722B9064BB3F85C008C
S3150000561080B27047044BB3F85C0080B2704700BF9D
S315000056200C30FE1F0000094000000640084B90F8B1
S31500005630242033F812309BB2022B00D070471AB9DF
S31500005640044BA3F85C107047034BA3F85C1070473B
S315000056500C30FE1F00000940000006400A4B90F87F
S31500005660242033F812309BB2022B01D00020704761
S3150000567022B9064BB3F85E0080B27047044BB3F80C
S315000056805E0080B2704700BF0C30FE1F000009406C
S3150000569000000640084B90F8242033F812309BB2E5
S315000056A0022B00D070471AB9044BA3F85E1070475E
S315000056B0034BA3F85E1070470C30FE1F0000094034
S315000056C00000064020B9054BB3F8600080B2704771
S315000056D0034BB3F8600080B2704700BF000009407A
S315000056E000000640084B90F8242033F812309BB295
S315000056F0022B00D070471AB9044BA3F86410704708
S31500005700034BA3F8641070470C30FE1F00000940DD
S31500005710000006400A4B90F8242033F812309BB262
S31500005720022B01D00020704722B9064BB3F868005F
S3150000573080B27047044BB3F8680080B2704700BF70
S315000057400C30FE1F0000094000000640084B90F890
S31500005750242033F812309BB2022B00D070471AB9BE
S31500005760044BA3F868107047034BA3F86810704702
S315000057700C30FE1F0000094000000640064B90F862
S31500005780242033F812309BB2022B04D1012A04BF25
S31500005790024BA3F86A1070470C30FE1F000006404B
S315000057A0084B90F8240033F810309BB2022B01D03E
S315000057B0002070470028FCD0034BB3F86A0080B283
S315000057C0704700BF0C30FE1F000006400A4B90F8E1
S315000057D0242033F812309BB2022B01D000207047F0
S315000057E022B9064BB3F86C0080B27047044BB3F88D
S315000057F06C0080B2704700BF0C30FE1F00000940ED
S3150000580000000640084B90F8242033F812309BB273
S31500005810022B00D070471AB9044BA3F86C107047DE
S31500005820034BA3F86C1070470C30FE1F00000940B4
